{
  "_format": "hh-sol-artifact-1",
  "contractName": "ClaraJobNFT",
  "sourceName": "contracts/ClaraJobNFT.sol",
  "abi": [
    {
      "inputs": [],
      "stateMutability": "nonpayable",
      "type": "constructor"
    },
    {
      "anonymous": false,
      "inputs": [
        {
          "indexed": true,
          "internalType": "address",
          "name": "owner",
          "type": "address"
        },
        {
          "indexed": true,
          "internalType": "address",
          "name": "approved",
          "type": "address"
        },
        {
          "indexed": true,
          "internalType": "uint256",
          "name": "tokenId",
          "type": "uint256"
        }
      ],
      "name": "Approval",
      "type": "event"
    },
    {
      "anonymous": false,
      "inputs": [
        {
          "indexed": true,
          "internalType": "address",
          "name": "owner",
          "type": "address"
        },
        {
          "indexed": true,
          "internalType": "address",
          "name": "operator",
          "type": "address"
        },
        {
          "indexed": false,
          "internalType": "bool",
          "name": "approved",
          "type": "bool"
        }
      ],
      "name": "ApprovalForAll",
      "type": "event"
    },
    {
      "anonymous": false,
      "inputs": [
        {
          "indexed": false,
          "internalType": "uint256",
          "name": "_fromTokenId",
          "type": "uint256"
        },
        {
          "indexed": false,
          "internalType": "uint256",
          "name": "_toTokenId",
          "type": "uint256"
        }
      ],
      "name": "BatchMetadataUpdate",
      "type": "event"
    },
    {
      "anonymous": false,
      "inputs": [
        {
          "indexed": true,
          "internalType": "uint256",
          "name": "tokenId",
          "type": "uint256"
        },
        {
          "indexed": false,
          "internalType": "string",
          "name": "biosampleSerial",
          "type": "string"
        },
        {
          "indexed": true,
          "internalType": "address",
          "name": "owner",
          "type": "address"
        },
        {
          "indexed": false,
          "internalType": "string",
          "name": "vcfPath",
          "type": "string"
        },
        {
          "indexed": false,
          "internalType": "bytes32",
          "name": "vcfHash",
          "type": "bytes32"
        }
      ],
      "name": "JobMinted",
      "type": "event"
    },
    {
      "anonymous": false,
      "inputs": [
        {
          "indexed": false,
          "internalType": "uint256",
          "name": "_tokenId",
          "type": "uint256"
        }
      ],
      "name": "MetadataUpdate",
      "type": "event"
    },
    {
      "anonymous": false,
      "inputs": [
        {
          "indexed": true,
          "internalType": "address",
          "name": "previousOwner",
          "type": "address"
        },
        {
          "indexed": true,
          "internalType": "address",
          "name": "newOwner",
          "type": "address"
        }
      ],
      "name": "OwnershipTransferred",
      "type": "event"
    },
    {
      "anonymous": false,
      "inputs": [
        {
          "indexed": true,
          "internalType": "address",
          "name": "from",
          "type": "address"
        },
        {
          "indexed": true,
          "internalType": "address",
          "name": "to",
          "type": "address"
        },
        {
          "indexed": true,
          "internalType": "uint256",
          "name": "tokenId",
          "type": "uint256"
        }
      ],
      "name": "Transfer",
      "type": "event"
    },
    {
      "inputs": [
        {
          "internalType": "address",
          "name": "to",
          "type": "address"
        },
        {
          "internalType": "uint256",
          "name": "tokenId",
          "type": "uint256"
        }
      ],
      "name": "approve",
      "outputs": [],
      "stateMutability": "nonpayable",
      "type": "function"
    },
    {
      "inputs": [
        {
          "internalType": "address",
          "name": "owner",
          "type": "address"
        }
      ],
      "name": "balanceOf",
      "outputs": [
        {
          "internalType": "uint256",
          "name": "",
          "type": "uint256"
        }
      ],
      "stateMutability": "view",
      "type": "function"
    },
    {
      "inputs": [
        {
          "internalType": "string",
          "name": "",
          "type": "string"
        }
      ],
      "name": "biosampleToTokenId",
      "outputs": [
        {
          "internalType": "uint256",
          "name": "",
          "type": "uint256"
        }
      ],
      "stateMutability": "view",
      "type": "function"
    },
    {
      "inputs": [
        {
          "internalType": "uint256",
          "name": "tokenId",
          "type": "uint256"
        }
      ],
      "name": "getApproved",
      "outputs": [
        {
          "internalType": "address",
          "name": "",
          "type": "address"
        }
      ],
      "stateMutability": "view",
      "type": "function"
    },
    {
      "inputs": [
        {
          "internalType": "uint256",
          "name": "tokenId",
          "type": "uint256"
        }
      ],
      "name": "getJobData",
      "outputs": [
        {
          "components": [
            {
              "internalType": "string",
              "name": "biosampleSerial",
              "type": "string"
            },
            {
              "internalType": "string",
              "name": "vcfPath",
              "type": "string"
            },
            {
              "internalType": "string",
              "name": "pipeline",
              "type": "string"
            },
            {
              "internalType": "string",
              "name": "referenceGenome",
              "type": "string"
            },
            {
              "internalType": "bytes32",
              "name": "vcfHash",
              "type": "bytes32"
            },
            {
              "internalType": "uint256",
              "name": "createdAt",
              "type": "uint256"
            }
          ],
          "internalType": "struct ClaraJobNFT.JobData",
          "name": "",
          "type": "tuple"
        }
      ],
      "stateMutability": "view",
      "type": "function"
    },
    {
      "inputs": [
        {
          "internalType": "address",
          "name": "owner",
          "type": "address"
        },
        {
          "internalType": "address",
          "name": "operator",
          "type": "address"
        }
      ],
      "name": "isApprovedForAll",
      "outputs": [
        {
          "internalType": "bool",
          "name": "",
          "type": "bool"
        }
      ],
      "stateMutability": "view",
      "type": "function"
    },
    {
      "inputs": [
        {
          "internalType": "uint256",
          "name": "",
          "type": "uint256"
        }
      ],
      "name": "jobData",
      "outputs": [
        {
          "internalType": "string",
          "name": "biosampleSerial",
          "type": "string"
        },
        {
          "internalType": "string",
          "name": "vcfPath",
          "type": "string"
        },
        {
          "internalType": "string",
          "name": "pipeline",
          "type": "string"
        },
        {
          "internalType": "string",
          "name": "referenceGenome",
          "type": "string"
        },
        {
          "internalType": "bytes32",
          "name": "vcfHash",
          "type": "bytes32"
        },
        {
          "internalType": "uint256",
          "name": "createdAt",
          "type": "uint256"
        }
      ],
      "stateMutability": "view",
      "type": "function"
    },
    {
      "inputs": [
        {
          "internalType": "address",
          "name": "to",
          "type": "address"
        },
        {
          "internalType": "string",
          "name": "biosampleSerial",
          "type": "string"
        },
        {
          "internalType": "string",
          "name": "vcfPath",
          "type": "string"
        },
        {
          "internalType": "string",
          "name": "pipeline",
          "type": "string"
        },
        {
          "internalType": "string",
          "name": "referenceGenome",
          "type": "string"
        },
        {
          "internalType": "bytes32",
          "name": "vcfHash",
          "type": "bytes32"
        },
        {
          "internalType": "string",
          "name": "metadataUri",
          "type": "string"
        }
      ],
      "name": "mintJob",
      "outputs": [
        {
          "internalType": "uint256",
          "name": "",
          "type": "uint256"
        }
      ],
      "stateMutability": "nonpayable",
      "type": "function"
    },
    {
      "inputs": [],
      "name": "name",
      "outputs": [
        {
          "internalType": "string",
          "name": "",
          "type": "string"
        }
      ],
      "stateMutability": "view",
      "type": "function"
    },
    {
      "inputs": [],
      "name": "owner",
      "outputs": [
        {
          "internalType": "address",
          "name": "",
          "type": "address"
        }
      ],
      "stateMutability": "view",
      "type": "function"
    },
    {
      "inputs": [
        {
          "internalType": "uint256",
          "name": "tokenId",
          "type": "uint256"
        }
      ],
      "name": "ownerOf",
      "outputs": [
        {
          "internalType": "address",
          "name": "",
          "type": "address"
        }
      ],
      "stateMutability": "view",
      "type": "function"
    },
    {
      "inputs": [],
      "name": "renounceOwnership",
      "outputs": [],
      "stateMutability": "nonpayable",
      "type": "function"
    },
    {
      "inputs": [
        {
          "internalType": "address",
          "name": "to",
          "type": "address"
        },
        {
          "internalType": "string",
          "name": "uri",
          "type": "string"
        }
      ],
      "name": "safeMint",
      "outputs": [
        {
          "internalType": "uint256",
          "name": "",
          "type": "uint256"
        }
      ],
      "stateMutability": "nonpayable",
      "type": "function"
    },
    {
      "inputs": [
        {
          "internalType": "address",
          "name": "from",
          "type": "address"
        },
        {
          "internalType": "address",
          "name": "to",
          "type": "address"
        },
        {
          "internalType": "uint256",
          "name": "tokenId",
          "type": "uint256"
        }
      ],
      "name": "safeTransferFrom",
      "outputs": [],
      "stateMutability": "nonpayable",
      "type": "function"
    },
    {
      "inputs": [
        {
          "internalType": "address",
          "name": "from",
          "type": "address"
        },
        {
          "internalType": "address",
          "name": "to",
          "type": "address"
        },
        {
          "internalType": "uint256",
          "name": "tokenId",
          "type": "uint256"
        },
        {
          "internalType": "bytes",
          "name": "data",
          "type": "bytes"
        }
      ],
      "name": "safeTransferFrom",
      "outputs": [],
      "stateMutability": "nonpayable",
      "type": "function"
    },
    {
      "inputs": [
        {
          "internalType": "address",
          "name": "operator",
          "type": "address"
        },
        {
          "internalType": "bool",
          "name": "approved",
          "type": "bool"
        }
      ],
      "name": "setApprovalForAll",
      "outputs": [],
      "stateMutability": "nonpayable",
      "type": "function"
    },
    {
      "inputs": [
        {
          "internalType": "bytes4",
          "name": "interfaceId",
          "type": "bytes4"
        }
      ],
      "name": "supportsInterface",
      "outputs": [
        {
          "internalType": "bool",
          "name": "",
          "type": "bool"
        }
      ],
      "stateMutability": "view",
      "type": "function"
    },
    {
      "inputs": [],
      "name": "symbol",
      "outputs": [
        {
          "internalType": "string",
          "name": "",
          "type": "string"
        }
      ],
      "stateMutability": "view",
      "type": "function"
    },
    {
      "inputs": [
        {
          "internalType": "uint256",
          "name": "tokenId",
          "type": "uint256"
        }
      ],
      "name": "tokenURI",
      "outputs": [
        {
          "internalType": "string",
          "name": "",
          "type": "string"
        }
      ],
      "stateMutability": "view",
      "type": "function"
    },
    {
      "inputs": [],
      "name": "totalSupply",
      "outputs": [
        {
          "internalType": "uint256",
          "name": "",
          "type": "uint256"
        }
      ],
      "stateMutability": "view",
      "type": "function"
    },
    {
      "inputs": [
        {
          "internalType": "address",
          "name": "from",
          "type": "address"
        },
        {
          "internalType": "address",
          "name": "to",
          "type": "address"
        },
        {
          "internalType": "uint256",
          "name": "tokenId",
          "type": "uint256"
        }
      ],
      "name": "transferFrom",
      "outputs": [],
      "stateMutability": "nonpayable",
      "type": "function"
    },
    {
      "inputs": [
        {
          "internalType": "address",
          "name": "newOwner",
          "type": "address"
        }
      ],
      "name": "transferOwnership",
      "outputs": [],
      "stateMutability": "nonpayable",
      "type": "function"
    }
  ],
  "bytecode": "0x60806040523480156200001157600080fd5b506040518060400160405280601681526020017f436c6172612047656e6f6d696373204a6f6273205632000000000000000000008152506040518060400160405280600781526020016621a620a920ab1960c91b8152508160009081620000799190620001ab565b506001620000888282620001ab565b505050620000a56200009f620000b060201b60201c565b620000b4565b600160085562000277565b3390565b600780546001600160a01b038381166001600160a01b0319831681179093556040519116919082907f8be0079c531659141344cd1fd0a4f28419497f9722a3daafe3b4186f6b6457e090600090a35050565b634e487b7160e01b600052604160045260246000fd5b600181811c908216806200013157607f821691505b6020821081036200015257634e487b7160e01b600052602260045260246000fd5b50919050565b601f821115620001a657600081815260208120601f850160051c81016020861015620001815750805b601f850160051c820191505b81811015620001a2578281556001016200018d565b5050505b505050565b81516001600160401b03811115620001c757620001c762000106565b620001df81620001d884546200011c565b8462000158565b602080601f831160018114620002175760008415620001fe5750858301515b600019600386901b1c1916600185901b178555620001a2565b600085815260208120601f198616915b82811015620002485788860151825594840194600190910190840162000227565b5085821015620002675787850151600019600388901b60f8161c191681555b5050505050600190811b01905550565b6124bf80620002876000396000f3fe608060405234801561001057600080fd5b50600436106101425760003560e01c80638da5cb5b116100b8578063c87b56dd1161007c578063c87b56dd146102a5578063d204c45e146102b8578063de35a31e146102cb578063e985e9c5146102f6578063f2fde38b14610309578063fe06692e1461031c57600080fd5b80638da5cb5b1461025357806395d89b4114610264578063a22cb4651461026c578063b88d4fde1461027f578063be82a0061461029257600080fd5b806323b872dd1161010a57806323b872dd146101da57806342842e0e146101ed57806348955b09146102005780636352211e1461022557806370a0823114610238578063715018a61461024b57600080fd5b806301ffc9a71461014757806306fdde031461016f578063081812fc14610184578063095ea7b3146101af57806318160ddd146101c4575b600080fd5b61015a610155366004611b67565b61033c565b60405190151581526020015b60405180910390f35b610177610367565b6040516101669190611bd4565b610197610192366004611be7565b6103f9565b6040516001600160a01b039091168152602001610166565b6101c26101bd366004611c1c565b610420565b005b6101cc61053a565b604051908152602001610166565b6101c26101e8366004611c46565b610550565b6101c26101fb366004611c46565b610581565b61021361020e366004611be7565b61059c565b60405161016696959493929190611c82565b610197610233366004611be7565b6107f0565b6101cc610246366004611ce5565b610850565b6101c26108d6565b6007546001600160a01b0316610197565b6101776108ea565b6101c261027a366004611d00565b6108f9565b6101c261028d366004611dc8565b610908565b6101cc6102a0366004611e8d565b610940565b6101776102b3366004611be7565b610c19565b6101cc6102c6366004611fba565b610d29565b6101cc6102d936600461200d565b8051602081830181018051600a8252928201919093012091525481565b61015a610304366004612056565b610d94565b6101c2610317366004611ce5565b610dc2565b61032f61032a366004611be7565b610e3b565b6040516101669190612089565b60006001600160e01b03198216632483248360e11b1480610361575061036182611142565b92915050565b6060600080546103769061211f565b80601f01602080910402602001604051908101604052809291908181526020018280546103a29061211f565b80156103ef5780601f106103c4576101008083540402835291602001916103ef565b820191906000526020600020905b8154815290600101906020018083116103d257829003601f168201915b5050505050905090565b600061040482611192565b506000908152600460205260409020546001600160a01b031690565b600061042b826107f0565b9050806001600160a01b0316836001600160a01b03160361049d5760405162461bcd60e51b815260206004820152602160248201527f4552433732313a20617070726f76616c20746f2063757272656e74206f776e656044820152603960f91b60648201526084015b60405180910390fd5b336001600160a01b03821614806104b957506104b98133610d94565b61052b5760405162461bcd60e51b815260206004820152603d60248201527f4552433732313a20617070726f76652063616c6c6572206973206e6f7420746f60448201527f6b656e206f776e6572206f7220617070726f76656420666f7220616c6c0000006064820152608401610494565b61053583836111f1565b505050565b6000600160085461054b919061216f565b905090565b61055a338261125f565b6105765760405162461bcd60e51b815260040161049490612182565b6105358383836112bd565b61053583838360405180602001604052806000815250610908565b6009602052600090815260409020805481906105b79061211f565b80601f01602080910402602001604051908101604052809291908181526020018280546105e39061211f565b80156106305780601f1061060557610100808354040283529160200191610630565b820191906000526020600020905b81548152906001019060200180831161061357829003601f168201915b5050505050908060010180546106459061211f565b80601f01602080910402602001604051908101604052809291908181526020018280546106719061211f565b80156106be5780601f10610693576101008083540402835291602001916106be565b820191906000526020600020905b8154815290600101906020018083116106a157829003601f168201915b5050505050908060020180546106d39061211f565b80601f01602080910402602001604051908101604052809291908181526020018280546106ff9061211f565b801561074c5780601f106107215761010080835404028352916020019161074c565b820191906000526020600020905b81548152906001019060200180831161072f57829003601f168201915b5050505050908060030180546107619061211f565b80601f016020809104026020016040519081016040528092919081815260200182805461078d9061211f565b80156107da5780601f106107af576101008083540402835291602001916107da565b820191906000526020600020905b8154815290600101906020018083116107bd57829003601f168201915b5050505050908060040154908060050154905086565b6000818152600260205260408120546001600160a01b0316806103615760405162461bcd60e51b8152602060048201526018602482015277115490cdcc8c4e881a5b9d985b1a59081d1bdad95b88125160421b6044820152606401610494565b60006001600160a01b0382166108ba5760405162461bcd60e51b815260206004820152602960248201527f4552433732313a2061646472657373207a65726f206973206e6f7420612076616044820152683634b21037bbb732b960b91b6064820152608401610494565b506001600160a01b031660009081526003602052604090205490565b6108de611421565b6108e8600061147b565b565b6060600180546103769061211f565b6109043383836114cd565b5050565b610912338361125f565b61092e5760405162461bcd60e51b815260040161049490612182565b61093a8484848461159b565b50505050565b600061094a611421565b600a8c8c60405161095c9291906121cf565b9081526020016040518091039020546000146109c85760405162461bcd60e51b815260206004820152602560248201527f4a6f6220616c72656164792065786973747320666f7220746869732062696f73604482015264616d706c6560d81b6064820152608401610494565b60088054600091826109d9836121df565b9190505590506109e98e826115ce565b610a298185858080601f0160208091040260200160405190810160405280939291908181526020018383808284376000920191909152506115e892505050565b6040518060c001604052808e8e8080601f016020809104026020016040519081016040528093929190818152602001838380828437600092019190915250505090825250604080516020601f8f018190048102820181019092528d815291810191908e908e9081908401838280828437600092019190915250505090825250604080516020601f8d018190048102820181019092528b815291810191908c908c9081908401838280828437600092019190915250505090825250604080516020601f8b0181900481028201810190925289815291810191908a908a90819084018382808284376000920182905250938552505050602080830189905242604093840152848252600990522081518190610b429082612246565b5060208201516001820190610b579082612246565b5060408201516002820190610b6c9082612246565b5060608201516003820190610b819082612246565b506080820151816004015560a0820151816005015590505080600a8e8e604051610bac9291906121cf565b9081526020016040518091039020819055508d6001600160a01b0316817f01d07d66983b01657cd02e2b85da923dc348f15a0e159f74851f519123f3e8078f8f8f8f8b604051610c0095949392919061232f565b60405180910390a39d9c50505050505050505050505050565b6060610c2482611192565b60008281526006602052604081208054610c3d9061211f565b80601f0160208091040260200160405190810160405280929190818152602001828054610c699061211f565b8015610cb65780601f10610c8b57610100808354040283529160200191610cb6565b820191906000526020600020905b815481529060010190602001808311610c9957829003601f168201915b505050505090506000610cd460408051602081019091526000815290565b90508051600003610ce6575092915050565b815115610d18578082604051602001610d00929190612369565b60405160208183030381529060405292505050919050565b610d21846116b3565b949350505050565b6000610d33611421565b6008805460009182610d44836121df565b919050559050610d5485826115ce565b610d218185858080601f0160208091040260200160405190810160405280939291908181526020018383808284376000920191909152506115e892505050565b6001600160a01b03918216600090815260056020908152604080832093909416825291909152205460ff1690565b610dca611421565b6001600160a01b038116610e2f5760405162461bcd60e51b815260206004820152602660248201527f4f776e61626c653a206e6577206f776e657220697320746865207a65726f206160448201526564647265737360d01b6064820152608401610494565b610e388161147b565b50565b610e776040518060c001604052806060815260200160608152602001606081526020016060815260200160008019168152602001600081525090565b600082118015610e88575060085482105b610ec75760405162461bcd60e51b815260206004820152601060248201526f125b9d985b1a59081d1bdad95b88125160821b6044820152606401610494565b60008281526009602052604090819020815160c08101909252805482908290610eef9061211f565b80601f0160208091040260200160405190810160405280929190818152602001828054610f1b9061211f565b8015610f685780601f10610f3d57610100808354040283529160200191610f68565b820191906000526020600020905b815481529060010190602001808311610f4b57829003601f168201915b50505050508152602001600182018054610f819061211f565b80601f0160208091040260200160405190810160405280929190818152602001828054610fad9061211f565b8015610ffa5780601f10610fcf57610100808354040283529160200191610ffa565b820191906000526020600020905b815481529060010190602001808311610fdd57829003601f168201915b505050505081526020016002820180546110139061211f565b80601f016020809104026020016040519081016040528092919081815260200182805461103f9061211f565b801561108c5780601f106110615761010080835404028352916020019161108c565b820191906000526020600020905b81548152906001019060200180831161106f57829003601f168201915b505050505081526020016003820180546110a59061211f565b80601f01602080910402602001604051908101604052809291908181526020018280546110d19061211f565b801561111e5780601f106110f35761010080835404028352916020019161111e565b820191906000526020600020905b81548152906001019060200180831161110157829003601f168201915b50505050508152602001600482015481526020016005820154815250509050919050565b60006001600160e01b031982166380ac58cd60e01b148061117357506001600160e01b03198216635b5e139f60e01b145b8061036157506301ffc9a760e01b6001600160e01b0319831614610361565b6000818152600260205260409020546001600160a01b0316610e385760405162461bcd60e51b8152602060048201526018602482015277115490cdcc8c4e881a5b9d985b1a59081d1bdad95b88125160421b6044820152606401610494565b600081815260046020526040902080546001600160a01b0319166001600160a01b0384169081179091558190611226826107f0565b6001600160a01b03167f8c5be1e5ebec7d5bd14f71427d1e84f3dd0314c0f7b2291e5b200ac8c7c3b92560405160405180910390a45050565b60008061126b836107f0565b9050806001600160a01b0316846001600160a01b0316148061129257506112928185610d94565b80610d215750836001600160a01b03166112ab846103f9565b6001600160a01b031614949350505050565b826001600160a01b03166112d0826107f0565b6001600160a01b0316146112f65760405162461bcd60e51b815260040161049490612398565b6001600160a01b0382166113585760405162461bcd60e51b8152602060048201526024808201527f4552433732313a207472616e7366657220746f20746865207a65726f206164646044820152637265737360e01b6064820152608401610494565b826001600160a01b031661136b826107f0565b6001600160a01b0316146113915760405162461bcd60e51b815260040161049490612398565b600081815260046020908152604080832080546001600160a01b03199081169091556001600160a01b0387811680865260038552838620805460001901905590871680865283862080546001019055868652600290945282852080549092168417909155905184937fddf252ad1be2c89b69c2b068fc378daa952ba7f163c4a11628f55a4df523b3ef91a4505050565b6007546001600160a01b031633146108e85760405162461bcd60e51b815260206004820181905260248201527f4f776e61626c653a2063616c6c6572206973206e6f7420746865206f776e65726044820152606401610494565b600780546001600160a01b038381166001600160a01b0319831681179093556040519116919082907f8be0079c531659141344cd1fd0a4f28419497f9722a3daafe3b4186f6b6457e090600090a35050565b816001600160a01b0316836001600160a01b03160361152e5760405162461bcd60e51b815260206004820152601960248201527f4552433732313a20617070726f766520746f2063616c6c6572000000000000006044820152606401610494565b6001600160a01b03838116600081815260056020908152604080832094871680845294825291829020805460ff191686151590811790915591519182527f17307eab39ab6107e8899845ad3d59bd9653f200f220920489ca2b5937696c31910160405180910390a3505050565b6115a68484846112bd565b6115b284848484611727565b61093a5760405162461bcd60e51b8152600401610494906123dd565b610904828260405180602001604052806000815250611828565b6000828152600260205260409020546001600160a01b03166116635760405162461bcd60e51b815260206004820152602e60248201527f45524337323155524953746f726167653a2055524920736574206f66206e6f6e60448201526d32bc34b9ba32b73a103a37b5b2b760911b6064820152608401610494565b600082815260066020526040902061167b8282612246565b506040518281527ff8e1a15aba9398e019f0b49df1a4fde98ee17ae345cb5f6b5e2c27f5033e8ce79060200160405180910390a15050565b60606116be82611192565b60006116d560408051602081019091526000815290565b905060008151116116f55760405180602001604052806000815250611720565b806116ff8461185b565b604051602001611710929190612369565b6040516020818303038152906040525b9392505050565b60006001600160a01b0384163b1561181d57604051630a85bd0160e11b81526001600160a01b0385169063150b7a029061176b90339089908890889060040161242f565b6020604051808303816000875af19250505080156117a6575060408051601f3d908101601f191682019092526117a39181019061246c565b60015b611803573d8080156117d4576040519150601f19603f3d011682016040523d82523d6000602084013e6117d9565b606091505b5080516000036117fb5760405162461bcd60e51b8152600401610494906123dd565b805181602001fd5b6001600160e01b031916630a85bd0160e11b149050610d21565b506001949350505050565b61183283836118ee565b61183f6000848484611727565b6105355760405162461bcd60e51b8152600401610494906123dd565b6060600061186883611a79565b600101905060008167ffffffffffffffff81111561188857611888611d3c565b6040519080825280601f01601f1916602001820160405280156118b2576020820181803683370190505b5090508181016020015b600019016f181899199a1a9b1b9c1cb0b131b232b360811b600a86061a8153600a85049450846118bc57509392505050565b6001600160a01b0382166119445760405162461bcd60e51b815260206004820181905260248201527f4552433732313a206d696e7420746f20746865207a65726f20616464726573736044820152606401610494565b6000818152600260205260409020546001600160a01b0316156119a95760405162461bcd60e51b815260206004820152601c60248201527f4552433732313a20746f6b656e20616c7265616479206d696e746564000000006044820152606401610494565b6000818152600260205260409020546001600160a01b031615611a0e5760405162461bcd60e51b815260206004820152601c60248201527f4552433732313a20746f6b656e20616c7265616479206d696e746564000000006044820152606401610494565b6001600160a01b038216600081815260036020908152604080832080546001019055848352600290915280822080546001600160a01b0319168417905551839291907fddf252ad1be2c89b69c2b068fc378daa952ba7f163c4a11628f55a4df523b3ef908290a45050565b60008072184f03e93ff9f4daa797ed6e38ed64bf6a1f0160401b8310611ab85772184f03e93ff9f4daa797ed6e38ed64bf6a1f0160401b830492506040015b6d04ee2d6d415b85acef81000000008310611ae4576d04ee2d6d415b85acef8100000000830492506020015b662386f26fc100008310611b0257662386f26fc10000830492506010015b6305f5e1008310611b1a576305f5e100830492506008015b6127108310611b2e57612710830492506004015b60648310611b40576064830492506002015b600a83106103615760010192915050565b6001600160e01b031981168114610e3857600080fd5b600060208284031215611b7957600080fd5b813561172081611b51565b60005b83811015611b9f578181015183820152602001611b87565b50506000910152565b60008151808452611bc0816020860160208601611b84565b601f01601f19169290920160200192915050565b6020815260006117206020830184611ba8565b600060208284031215611bf957600080fd5b5035919050565b80356001600160a01b0381168114611c1757600080fd5b919050565b60008060408385031215611c2f57600080fd5b611c3883611c00565b946020939093013593505050565b600080600060608486031215611c5b57600080fd5b611c6484611c00565b9250611c7260208501611c00565b9150604084013590509250925092565b60c081526000611c9560c0830189611ba8565b8281036020840152611ca78189611ba8565b90508281036040840152611cbb8188611ba8565b90508281036060840152611ccf8187611ba8565b6080840195909552505060a00152949350505050565b600060208284031215611cf757600080fd5b61172082611c00565b60008060408385031215611d1357600080fd5b611d1c83611c00565b915060208301358015158114611d3157600080fd5b809150509250929050565b634e487b7160e01b600052604160045260246000fd5b600067ffffffffffffffff80841115611d6d57611d6d611d3c565b604051601f8501601f19908116603f01168101908282118183101715611d9557611d95611d3c565b81604052809350858152868686011115611dae57600080fd5b858560208301376000602087830101525050509392505050565b60008060008060808587031215611dde57600080fd5b611de785611c00565b9350611df560208601611c00565b925060408501359150606085013567ffffffffffffffff811115611e1857600080fd5b8501601f81018713611e2957600080fd5b611e3887823560208401611d52565b91505092959194509250565b60008083601f840112611e5657600080fd5b50813567ffffffffffffffff811115611e6e57600080fd5b602083019150836020828501011115611e8657600080fd5b9250929050565b60008060008060008060008060008060008060e08d8f031215611eaf57600080fd5b611eb88d611c00565b9b5067ffffffffffffffff60208e01351115611ed357600080fd5b611ee38e60208f01358f01611e44565b909b50995067ffffffffffffffff60408e01351115611f0157600080fd5b611f118e60408f01358f01611e44565b909950975067ffffffffffffffff60608e01351115611f2f57600080fd5b611f3f8e60608f01358f01611e44565b909750955067ffffffffffffffff60808e01351115611f5d57600080fd5b611f6d8e60808f01358f01611e44565b909550935060a08d0135925067ffffffffffffffff60c08e01351115611f9257600080fd5b611fa28e60c08f01358f01611e44565b81935080925050509295989b509295989b509295989b565b600080600060408486031215611fcf57600080fd5b611fd884611c00565b9250602084013567ffffffffffffffff811115611ff457600080fd5b61200086828701611e44565b9497909650939450505050565b60006020828403121561201f57600080fd5b813567ffffffffffffffff81111561203657600080fd5b8201601f8101841361204757600080fd5b610d2184823560208401611d52565b6000806040838503121561206957600080fd5b61207283611c00565b915061208060208401611c00565b90509250929050565b602081526000825160c060208401526120a560e0840182611ba8565b90506020840151601f19808584030160408601526120c38383611ba8565b925060408601519150808584030160608601526120e08383611ba8565b92506060860151915080858403016080860152506120fe8282611ba8565b915050608084015160a084015260a084015160c08401528091505092915050565b600181811c9082168061213357607f821691505b60208210810361215357634e487b7160e01b600052602260045260246000fd5b50919050565b634e487b7160e01b600052601160045260246000fd5b8181038181111561036157610361612159565b6020808252602d908201527f4552433732313a2063616c6c6572206973206e6f7420746f6b656e206f776e6560408201526c1c881bdc88185c1c1c9bdd9959609a1b606082015260800190565b8183823760009101908152919050565b6000600182016121f1576121f1612159565b5060010190565b601f82111561053557600081815260208120601f850160051c8101602086101561221f5750805b601f850160051c820191505b8181101561223e5782815560010161222b565b505050505050565b815167ffffffffffffffff81111561226057612260611d3c565b6122748161226e845461211f565b846121f8565b602080601f8311600181146122a957600084156122915750858301515b600019600386901b1c1916600185901b17855561223e565b600085815260208120601f198616915b828110156122d8578886015182559484019460019091019084016122b9565b50858210156122f65787850151600019600388901b60f8161c191681555b5050505050600190811b01905550565b81835281816020850137506000828201602090810191909152601f909101601f19169091010190565b606081526000612343606083018789612306565b8281036020840152612356818688612306565b9150508260408301529695505050505050565b6000835161237b818460208801611b84565b83519083019061238f818360208801611b84565b01949350505050565b60208082526025908201527f4552433732313a207472616e736665722066726f6d20696e636f72726563742060408201526437bbb732b960d91b606082015260800190565b60208082526032908201527f4552433732313a207472616e7366657220746f206e6f6e20455243373231526560408201527131b2b4bb32b91034b6b83632b6b2b73a32b960711b606082015260800190565b6001600160a01b038581168252841660208201526040810183905260806060820181905260009061246290830184611ba8565b9695505050505050565b60006020828403121561247e57600080fd5b815161172081611b5156fea2646970667358221220640cba4b7c0e5bd8e14399dfa84fede5d61b569a97129a3ab698a3b83dfdca6664736f6c63430008130033",
  "linkReferences": {},
  "deployedLinkReferences": {}
}